{
  "contractName": "WordleContract",
  "abi": [
    {
      "inputs": [
        {
          "internalType": "address",
          "name": "_admin",
          "type": "address"
        }
      ],
      "stateMutability": "nonpayable",
      "type": "constructor"
    },
    {
      "anonymous": false,
      "inputs": [
        {
          "indexed": false,
          "internalType": "address",
          "name": "_sender",
          "type": "address"
        },
        {
          "indexed": false,
          "internalType": "string",
          "name": "_output",
          "type": "string"
        }
      ],
      "name": "CheckWord",
      "type": "event"
    },
    {
      "inputs": [
        {
          "internalType": "uint256",
          "name": "_random_number",
          "type": "uint256"
        }
      ],
      "name": "updateWord",
      "outputs": [],
      "stateMutability": "nonpayable",
      "type": "function"
    },
    {
      "inputs": [
        {
          "internalType": "string",
          "name": "input",
          "type": "string"
        }
      ],
      "name": "checkWord",
      "outputs": [
        {
          "internalType": "string",
          "name": "",
          "type": "string"
        }
      ],
      "stateMutability": "nonpayable",
      "type": "function"
    }
  ],
  "bytecode": "0x60806040526040518061014001604052806040518060400160405280600581526020017f64756d6d7900000000000000000000000000000000000000000000000000000081525081526020016040518060400160405280600581526020017f736f61726500000000000000000000000000000000000000000000000000000081525081526020016040518060400160405280600581526020017f6d696d696300000000000000000000000000000000000000000000000000000081525081526020016040518060400160405280600581526020017f737461697200000000000000000000000000000000000000000000000000000081525081526020016040518060400160405280600581526020017f656967687400000000000000000000000000000000000000000000000000000081525081526020016040518060400160405280600581526020017f706175736500000000000000000000000000000000000000000000000000000081525081526020016040518060400160405280600581526020017f726f75746500000000000000000000000000000000000000000000000000000081525081526020016040518060400160405280600581526020017f657175616c00000000000000000000000000000000000000000000000000000081525081526020016040518060400160405280600581526020017f627974657300000000000000000000000000000000000000000000000000000081525081526020016040518060400160405280600581526020017f6c6561726e000000000000000000000000000000000000000000000000000000815250815250600090600a6200026e92919062000555565b506040518061014001604052806040518060400160405280600581526020017f64756d6d7900000000000000000000000000000000000000000000000000000081525081526020016040518060400160405280600581526020017f736f61726500000000000000000000000000000000000000000000000000000081525081526020016040518060400160405280600581526020017f6d696d696300000000000000000000000000000000000000000000000000000081525081526020016040518060400160405280600581526020017f737461697200000000000000000000000000000000000000000000000000000081525081526020016040518060400160405280600581526020017f656967687400000000000000000000000000000000000000000000000000000081525081526020016040518060400160405280600581526020017f706175736500000000000000000000000000000000000000000000000000000081525081526020016040518060400160405280600581526020017f726f75746500000000000000000000000000000000000000000000000000000081525081526020016040518060400160405280600581526020017f657175616c00000000000000000000000000000000000000000000000000000081525081526020016040518060400160405280600581526020017f627974657300000000000000000000000000000000000000000000000000000081525081526020016040518060400160405280600581526020017f6c6561726e000000000000000000000000000000000000000000000000000000815250815250600190600a620004d992919062000555565b50348015620004e757600080fd5b50604051620018c9380380620018c983398181016040528101906200050d919062000744565b80600360006101000a81548173ffffffffffffffffffffffffffffffffffffffff021916908373ffffffffffffffffffffffffffffffffffffffff16021790555050620007db565b828054828255906000526020600020908101928215620005a9579160200282015b82811115620005a857825182908051906020019062000597929190620005bc565b509160200191906001019062000576565b5b509050620005b891906200064d565b5090565b828054620005ca90620007a5565b90600052602060002090601f016020900481019282620005ee57600085556200063a565b82601f106200060957805160ff19168380011785556200063a565b828001600101855582156200063a579182015b82811115620006395782518255916020019190600101906200061c565b5b50905062000649919062000675565b5090565b5b8082111562000671576000818162000667919062000694565b506001016200064e565b5090565b5b808211156200069057600081600090555060010162000676565b5090565b508054620006a290620007a5565b6000825580601f10620006b65750620006d7565b601f016020900490600052602060002090810190620006d6919062000675565b5b50565b600080fd5b600073ffffffffffffffffffffffffffffffffffffffff82169050919050565b60006200070c82620006df565b9050919050565b6200071e81620006ff565b81146200072a57600080fd5b50565b6000815190506200073e8162000713565b92915050565b6000602082840312156200075d576200075c620006da565b5b60006200076d848285016200072d565b91505092915050565b7f4e487b7100000000000000000000000000000000000000000000000000000000600052602260045260246000fd5b60006002820490506001821680620007be57607f821691505b60208210811415620007d557620007d462000776565b5b50919050565b6110de80620007eb6000396000f3fe608060405234801561001057600080fd5b50600436106100365760003560e01c80638faa15871461003b578063e1bbb06c1461006b575b600080fd5b61005560048036038101906100509190610b9d565b610087565b6040516100629190610c83565b60405180910390f35b61008560048036038101906100809190610cdb565b6109d5565b005b6060600080600254815481106100a05761009f610d08565b5b9060005260206000200180546100b590610d66565b80601f01602080910402602001604051908101604052809291908181526020018280546100e190610d66565b801561012e5780601f106101035761010080835404028352916020019161012e565b820191906000526020600020905b81548152906001019060200180831161011157829003601f168201915b505050505090506006600460003373ffffffffffffffffffffffffffffffffffffffff1673ffffffffffffffffffffffffffffffffffffffff168152602001908152602001600020826040516101849190610ddf565b908152602001604051809103902054106101d3576040517f08c379a00000000000000000000000000000000000000000000000000000000081526004016101ca90610e42565b60405180910390fd5b60008085858080601f016020809104026020016040519081016040528093929190818152602001838380828437600081840152601f19601f82011690508083019250505050505050905060005b6001805490508110156103055760006001828154811061024357610242610d08565b5b90600052602060002001805461025890610d66565b80601f016020809104026020016040519081016040528092919081815260200182805461028490610d66565b80156102d15780601f106102a6576101008083540402835291602001916102d1565b820191906000526020600020905b8154815290600101906020018083116102b457829003601f168201915b505050505090506102e28382610a6f565b156102f1576001935050610305565b5080806102fd90610e91565b915050610220565b5081610346576040517f08c379a000000000000000000000000000000000000000000000000000000000815260040161033d90610f26565b60405180910390fd5b6000600567ffffffffffffffff81111561036357610362610f46565b5b6040519080825280601f01601f1916602001820160405280156103955781602001600182028036833780820191505090505b50905060005b600581101561081d578481815181106103b7576103b6610d08565b5b602001015160f81c60f81b7effffffffffffffffffffffffffffffffffffffffffffffffffffffffffffff19168382815181106103f7576103f6610d08565b5b602001015160f81c60f81b7effffffffffffffffffffffffffffffffffffffffffffffffffffffffffffff19161415610492577f320000000000000000000000000000000000000000000000000000000000000082828151811061045e5761045d610d08565b5b60200101907effffffffffffffffffffffffffffffffffffffffffffffffffffffffffffff1916908160001a90535061080a565b846000815181106104a6576104a5610d08565b5b602001015160f81c60f81b7effffffffffffffffffffffffffffffffffffffffffffffffffffffffffffff19168382815181106104e6576104e5610d08565b5b602001015160f81c60f81b7effffffffffffffffffffffffffffffffffffffffffffffffffffffffffffff1916148061059d57508460018151811061052e5761052d610d08565b5b602001015160f81c60f81b7effffffffffffffffffffffffffffffffffffffffffffffffffffffffffffff191683828151811061056e5761056d610d08565b5b602001015160f81c60f81b7effffffffffffffffffffffffffffffffffffffffffffffffffffffffffffff1916145b806106265750846002815181106105b7576105b6610d08565b5b602001015160f81c60f81b7effffffffffffffffffffffffffffffffffffffffffffffffffffffffffffff19168382815181106105f7576105f6610d08565b5b602001015160f81c60f81b7effffffffffffffffffffffffffffffffffffffffffffffffffffffffffffff1916145b806106af5750846003815181106106405761063f610d08565b5b602001015160f81c60f81b7effffffffffffffffffffffffffffffffffffffffffffffffffffffffffffff19168382815181106106805761067f610d08565b5b602001015160f81c60f81b7effffffffffffffffffffffffffffffffffffffffffffffffffffffffffffff1916145b806107385750846004815181106106c9576106c8610d08565b5b602001015160f81c60f81b7effffffffffffffffffffffffffffffffffffffffffffffffffffffffffffff191683828151811061070957610708610d08565b5b602001015160f81c60f81b7effffffffffffffffffffffffffffffffffffffffffffffffffffffffffffff1916145b156107a5577f310000000000000000000000000000000000000000000000000000000000000082828151811061077157610770610d08565b5b60200101907effffffffffffffffffffffffffffffffffffffffffffffffffffffffffffff1916908160001a905350610809565b7f30000000000000000000000000000000000000000000000000000000000000008282815181106107d9576107d8610d08565b5b60200101907effffffffffffffffffffffffffffffffffffffffffffffffffffffffffffff1916908160001a9053505b5b808061081590610e91565b91505061039b565b506001600460003373ffffffffffffffffffffffffffffffffffffffff1673ffffffffffffffffffffffffffffffffffffffff1681526020019081526020016000208560405161086d9190610ddf565b9081526020016040518091039020600082825461088a9190610f75565b9250508190555060006001905060005b6005811015610925577f32000000000000000000000000000000000000000000000000000000000000008382815181106108d7576108d6610d08565b5b602001015160f81c60f81b7effffffffffffffffffffffffffffffffffffffffffffffffffffffffffffff1916146109125760009150610925565b808061091d90610e91565b91505061089a565b50801561098e576006600460003373ffffffffffffffffffffffffffffffffffffffff1673ffffffffffffffffffffffffffffffffffffffff1681526020019081526020016000208660405161097b9190610ddf565b9081526020016040518091039020819055505b7f55cc2932c4c84df9fb5b8acba4d01a148d917476534ea44e7ed1732f1df462a433836040516109bf92919061100c565b60405180910390a1819550505050505092915050565b600360009054906101000a900473ffffffffffffffffffffffffffffffffffffffff1673ffffffffffffffffffffffffffffffffffffffff163373ffffffffffffffffffffffffffffffffffffffff1614610a65576040517f08c379a0000000000000000000000000000000000000000000000000000000008152600401610a5c90611088565b60405180910390fd5b8060028190555050565b600080600090505b6005811015610b2257828181518110610a9357610a92610d08565b5b602001015160f81c60f81b7effffffffffffffffffffffffffffffffffffffffffffffffffffffffffffff1916848281518110610ad357610ad2610d08565b5b602001015160f81c60f81b7effffffffffffffffffffffffffffffffffffffffffffffffffffffffffffff191614610b0f576000915050610b28565b8080610b1a90610e91565b915050610a77565b50600190505b92915050565b600080fd5b600080fd5b600080fd5b600080fd5b600080fd5b60008083601f840112610b5d57610b5c610b38565b5b8235905067ffffffffffffffff811115610b7a57610b79610b3d565b5b602083019150836001820283011115610b9657610b95610b42565b5b9250929050565b60008060208385031215610bb457610bb3610b2e565b5b600083013567ffffffffffffffff811115610bd257610bd1610b33565b5b610bde85828601610b47565b92509250509250929050565b600081519050919050565b600082825260208201905092915050565b60005b83811015610c24578082015181840152602081019050610c09565b83811115610c33576000848401525b50505050565b6000601f19601f8301169050919050565b6000610c5582610bea565b610c5f8185610bf5565b9350610c6f818560208601610c06565b610c7881610c39565b840191505092915050565b60006020820190508181036000830152610c9d8184610c4a565b905092915050565b6000819050919050565b610cb881610ca5565b8114610cc357600080fd5b50565b600081359050610cd581610caf565b92915050565b600060208284031215610cf157610cf0610b2e565b5b6000610cff84828501610cc6565b91505092915050565b7f4e487b7100000000000000000000000000000000000000000000000000000000600052603260045260246000fd5b7f4e487b7100000000000000000000000000000000000000000000000000000000600052602260045260246000fd5b60006002820490506001821680610d7e57607f821691505b60208210811415610d9257610d91610d37565b5b50919050565b600081519050919050565b600081905092915050565b6000610db982610d98565b610dc38185610da3565b9350610dd3818560208601610c06565b80840191505092915050565b6000610deb8284610dae565b915081905092915050565b7f596f757220617474656d70747320617265206f76657200000000000000000000600082015250565b6000610e2c601683610bf5565b9150610e3782610df6565b602082019050919050565b60006020820190508181036000830152610e5b81610e1f565b9050919050565b7f4e487b7100000000000000000000000000000000000000000000000000000000600052601160045260246000fd5b6000610e9c82610ca5565b91507fffffffffffffffffffffffffffffffffffffffffffffffffffffffffffffffff821415610ecf57610ece610e62565b5b600182019050919050565b7f4e6f7420612076616c696420776f726400000000000000000000000000000000600082015250565b6000610f10601083610bf5565b9150610f1b82610eda565b602082019050919050565b60006020820190508181036000830152610f3f81610f03565b9050919050565b7f4e487b7100000000000000000000000000000000000000000000000000000000600052604160045260246000fd5b6000610f8082610ca5565b9150610f8b83610ca5565b9250827fffffffffffffffffffffffffffffffffffffffffffffffffffffffffffffffff03821115610fc057610fbf610e62565b5b828201905092915050565b600073ffffffffffffffffffffffffffffffffffffffff82169050919050565b6000610ff682610fcb565b9050919050565b61100681610feb565b82525050565b60006040820190506110216000830185610ffd565b81810360208301526110338184610c4a565b90509392505050565b7f596f752063616e6e6f742063616c6c2074686973207472616e73616374696f6e600082015250565b6000611072602083610bf5565b915061107d8261103c565b602082019050919050565b600060208201905081810360008301526110a181611065565b905091905056fea26469706673582212204afbdce1fd40ac0653dac36db1d0f4da489367d967a229673b1a4a119db33a8564736f6c634300080c0033",
  "immutableReferences": {},
  "source": "// SPDX-License-Identifier: MIT\r\npragma solidity >=0.4.22 <0.9.0;\r\n\r\ncontract WordleContract {\r\n    string[] wordlist = [\r\n        \"dummy\",\r\n        \"soare\",\r\n        \"mimic\",\r\n        \"stair\",\r\n        \"eight\",\r\n        \"pause\",\r\n        \"route\",\r\n        \"equal\",\r\n        \"bytes\",\r\n        \"learn\"\r\n    ];\r\n    string[] validList = [\r\n        \"dummy\",\r\n        \"soare\",\r\n        \"mimic\",\r\n        \"stair\",\r\n        \"eight\",\r\n        \"pause\",\r\n        \"route\",\r\n        \"equal\",\r\n        \"bytes\",\r\n        \"learn\"\r\n    ];\r\n    uint256 word_of_the_day;\r\n    address admin;\r\n    mapping(address => mapping(bytes => uint256)) attempts;\r\n\r\n    constructor(address _admin) public {\r\n        admin = _admin;\r\n    }\r\n\r\n    function updateWord(uint256 _random_number) external {\r\n        require(msg.sender == admin, \"You cannot call this transaction\");\r\n        word_of_the_day = _random_number;\r\n    }\r\n\r\n    function equal(bytes memory b1, bytes memory b2)\r\n        private\r\n        pure\r\n        returns (bool)\r\n    {\r\n        for (uint256 i = 0; i < 5; i++) {\r\n            if (b1[i] != b2[i]) return false;\r\n        }\r\n        return true;\r\n    }\r\n\r\n    event CheckWord(address _sender, string _output);\r\n\r\n    function checkWord(string calldata input) external returns (string memory) {\r\n        bytes memory temp = bytes(wordlist[word_of_the_day]);\r\n        require(attempts[msg.sender][temp] < 6, \"Your attempts are over\");\r\n        bool valid = false;\r\n        bytes memory b1 = bytes(input);\r\n\r\n        for (uint256 i = 0; i < validList.length; i++) {\r\n            bytes memory b2 = bytes(validList[i]);\r\n            if (equal(b1, b2)) {\r\n                valid = true;\r\n                break;\r\n            }\r\n        }\r\n        require(valid, \"Not a valid word\");\r\n\r\n        bytes memory output = new bytes(5);\r\n\r\n        for (uint256 i = 0; i < 5; i++) {\r\n            if (b1[i] == temp[i]) output[i] = \"2\";\r\n            else if (\r\n                b1[i] == temp[0] ||\r\n                b1[i] == temp[1] ||\r\n                b1[i] == temp[2] ||\r\n                b1[i] == temp[3] ||\r\n                b1[i] == temp[4]\r\n            ) {\r\n                output[i] = \"1\";\r\n            } else output[i] = \"0\";\r\n        }\r\n        attempts[msg.sender][temp] += 1;\r\n        bool done = true;\r\n        for (uint256 i = 0; i < 5; i++) {\r\n            if (output[i] != \"2\") {\r\n                done = false;\r\n                break;\r\n            }\r\n        }\r\n        if (done) {\r\n            attempts[msg.sender][temp] = 6;\r\n        }\r\n        emit CheckWord(msg.sender, string(output));\r\n        return string(output);\r\n    }\r\n}\r\n",
  "sourcePath": "C:\\Users\\sauri\\Desktop\\Learning\\Blockchain\\wordle3\\backend\\contracts\\WordleContract.sol",
  "compiler": {
    "name": "solc",
    "version": "0.8.12+commit.f00d7308.Emscripten.clang"
  },
  "schemaVersion": "3.4.6",
  "updatedAt": "2022-03-22T14:19:33.173Z",
  "devdoc": {
    "kind": "dev",
    "methods": {},
    "version": 1
  },
  "userdoc": {
    "kind": "user",
    "methods": {},
    "version": 1
  }
}