{
  "contractName": "WordleContract",
  "abi": [
    {
      "inputs": [
        {
          "internalType": "address",
          "name": "_admin",
          "type": "address"
        }
      ],
      "stateMutability": "nonpayable",
      "type": "constructor"
    },
    {
      "inputs": [
        {
          "internalType": "uint256",
          "name": "_random_number",
          "type": "uint256"
        }
      ],
      "name": "updateWord",
      "outputs": [],
      "stateMutability": "nonpayable",
      "type": "function"
    },
    {
      "inputs": [
        {
          "internalType": "string",
          "name": "input",
          "type": "string"
        }
      ],
      "name": "checkWord",
      "outputs": [
        {
          "internalType": "string",
          "name": "",
          "type": "string"
        }
      ],
      "stateMutability": "payable",
      "type": "function"
    }
  ],
  "bytecode": "0x60806040526040518061014001604052806040518060400160405280600581526020017f64756d6d7900000000000000000000000000000000000000000000000000000081525081526020016040518060400160405280600581526020017f736f61726500000000000000000000000000000000000000000000000000000081525081526020016040518060400160405280600581526020017f6d696d696300000000000000000000000000000000000000000000000000000081525081526020016040518060400160405280600581526020017f737461697200000000000000000000000000000000000000000000000000000081525081526020016040518060400160405280600581526020017f656967687400000000000000000000000000000000000000000000000000000081525081526020016040518060400160405280600581526020017f706175736500000000000000000000000000000000000000000000000000000081525081526020016040518060400160405280600581526020017f726f75746500000000000000000000000000000000000000000000000000000081525081526020016040518060400160405280600581526020017f657175616c00000000000000000000000000000000000000000000000000000081525081526020016040518060400160405280600581526020017f627974657300000000000000000000000000000000000000000000000000000081525081526020016040518060400160405280600581526020017f6c6561726e000000000000000000000000000000000000000000000000000000815250815250600090600a6200026e92919062000555565b506040518061014001604052806040518060400160405280600581526020017f64756d6d7900000000000000000000000000000000000000000000000000000081525081526020016040518060400160405280600581526020017f736f61726500000000000000000000000000000000000000000000000000000081525081526020016040518060400160405280600581526020017f6d696d696300000000000000000000000000000000000000000000000000000081525081526020016040518060400160405280600581526020017f737461697200000000000000000000000000000000000000000000000000000081525081526020016040518060400160405280600581526020017f656967687400000000000000000000000000000000000000000000000000000081525081526020016040518060400160405280600581526020017f706175736500000000000000000000000000000000000000000000000000000081525081526020016040518060400160405280600581526020017f726f75746500000000000000000000000000000000000000000000000000000081525081526020016040518060400160405280600581526020017f657175616c00000000000000000000000000000000000000000000000000000081525081526020016040518060400160405280600581526020017f627974657300000000000000000000000000000000000000000000000000000081525081526020016040518060400160405280600581526020017f6c6561726e000000000000000000000000000000000000000000000000000000815250815250600190600a620004d992919062000555565b50348015620004e757600080fd5b50604051620019e7380380620019e783398181016040528101906200050d919062000744565b80600360006101000a81548173ffffffffffffffffffffffffffffffffffffffff021916908373ffffffffffffffffffffffffffffffffffffffff16021790555050620007db565b828054828255906000526020600020908101928215620005a9579160200282015b82811115620005a857825182908051906020019062000597929190620005bc565b509160200191906001019062000576565b5b509050620005b891906200064d565b5090565b828054620005ca90620007a5565b90600052602060002090601f016020900481019282620005ee57600085556200063a565b82601f106200060957805160ff19168380011785556200063a565b828001600101855582156200063a579182015b82811115620006395782518255916020019190600101906200061c565b5b50905062000649919062000675565b5090565b5b8082111562000671576000818162000667919062000694565b506001016200064e565b5090565b5b808211156200069057600081600090555060010162000676565b5090565b508054620006a290620007a5565b6000825580601f10620006b65750620006d7565b601f016020900490600052602060002090810190620006d6919062000675565b5b50565b600080fd5b600073ffffffffffffffffffffffffffffffffffffffff82169050919050565b60006200070c82620006df565b9050919050565b6200071e81620006ff565b81146200072a57600080fd5b50565b6000815190506200073e8162000713565b92915050565b6000602082840312156200075d576200075c620006da565b5b60006200076d848285016200072d565b91505092915050565b7f4e487b7100000000000000000000000000000000000000000000000000000000600052602260045260246000fd5b60006002820490506001821680620007be57607f821691505b60208210811415620007d557620007d462000776565b5b50919050565b6111fc80620007eb6000396000f3fe6080604052600436106100295760003560e01c80638faa15871461002e578063e1bbb06c1461005e575b600080fd5b61004860048036038101906100439190610c54565b610087565b6040516100559190610d3a565b60405180910390f35b34801561006a57600080fd5b5061008560048036038101906100809190610d92565b610a8c565b005b606060013410156100cd576040517f08c379a00000000000000000000000000000000000000000000000000000000081526004016100c490610e0b565b60405180910390fd5b600080600254815481106100e4576100e3610e2b565b5b9060005260206000200180546100f990610e89565b80601f016020809104026020016040519081016040528092919081815260200182805461012590610e89565b80156101725780601f1061014757610100808354040283529160200191610172565b820191906000526020600020905b81548152906001019060200180831161015557829003601f168201915b505050505090506006600460003373ffffffffffffffffffffffffffffffffffffffff1673ffffffffffffffffffffffffffffffffffffffff168152602001908152602001600020826040516101c89190610f02565b90815260200160405180910390205410610217576040517f08c379a000000000000000000000000000000000000000000000000000000000815260040161020e90610f65565b60405180910390fd5b60008085858080601f016020809104026020016040519081016040528093929190818152602001838380828437600081840152601f19601f82011690508083019250505050505050905060005b60068110156103455760006001828154811061028357610282610e2b565b5b90600052602060002001805461029890610e89565b80601f01602080910402602001604051908101604052809291908181526020018280546102c490610e89565b80156103115780601f106102e657610100808354040283529160200191610311565b820191906000526020600020905b8154815290600101906020018083116102f457829003601f168201915b505050505090506103228382610b26565b15610331576001935050610345565b50808061033d90610fb4565b915050610264565b5081610386576040517f08c379a000000000000000000000000000000000000000000000000000000000815260040161037d90611049565b60405180910390fd5b6000600567ffffffffffffffff8111156103a3576103a2611069565b5b6040519080825280601f01601f1916602001820160405280156103d55781602001600182028036833780820191505090505b50905060005b600581101561085d578481815181106103f7576103f6610e2b565b5b602001015160f81c60f81b7effffffffffffffffffffffffffffffffffffffffffffffffffffffffffffff191683828151811061043757610436610e2b565b5b602001015160f81c60f81b7effffffffffffffffffffffffffffffffffffffffffffffffffffffffffffff191614156104d2577f320000000000000000000000000000000000000000000000000000000000000082828151811061049e5761049d610e2b565b5b60200101907effffffffffffffffffffffffffffffffffffffffffffffffffffffffffffff1916908160001a90535061084a565b846000815181106104e6576104e5610e2b565b5b602001015160f81c60f81b7effffffffffffffffffffffffffffffffffffffffffffffffffffffffffffff191683828151811061052657610525610e2b565b5b602001015160f81c60f81b7effffffffffffffffffffffffffffffffffffffffffffffffffffffffffffff191614806105dd57508460018151811061056e5761056d610e2b565b5b602001015160f81c60f81b7effffffffffffffffffffffffffffffffffffffffffffffffffffffffffffff19168382815181106105ae576105ad610e2b565b5b602001015160f81c60f81b7effffffffffffffffffffffffffffffffffffffffffffffffffffffffffffff1916145b806106665750846002815181106105f7576105f6610e2b565b5b602001015160f81c60f81b7effffffffffffffffffffffffffffffffffffffffffffffffffffffffffffff191683828151811061063757610636610e2b565b5b602001015160f81c60f81b7effffffffffffffffffffffffffffffffffffffffffffffffffffffffffffff1916145b806106ef5750846003815181106106805761067f610e2b565b5b602001015160f81c60f81b7effffffffffffffffffffffffffffffffffffffffffffffffffffffffffffff19168382815181106106c0576106bf610e2b565b5b602001015160f81c60f81b7effffffffffffffffffffffffffffffffffffffffffffffffffffffffffffff1916145b8061077857508460048151811061070957610708610e2b565b5b602001015160f81c60f81b7effffffffffffffffffffffffffffffffffffffffffffffffffffffffffffff191683828151811061074957610748610e2b565b5b602001015160f81c60f81b7effffffffffffffffffffffffffffffffffffffffffffffffffffffffffffff1916145b156107e5577f31000000000000000000000000000000000000000000000000000000000000008282815181106107b1576107b0610e2b565b5b60200101907effffffffffffffffffffffffffffffffffffffffffffffffffffffffffffff1916908160001a905350610849565b7f300000000000000000000000000000000000000000000000000000000000000082828151811061081957610818610e2b565b5b60200101907effffffffffffffffffffffffffffffffffffffffffffffffffffffffffffff1916908160001a9053505b5b808061085590610fb4565b9150506103db565b506001600460003373ffffffffffffffffffffffffffffffffffffffff1673ffffffffffffffffffffffffffffffffffffffff168152602001908152602001600020856040516108ad9190610f02565b908152602001604051809103902060008282546108ca9190611098565b9250508190555060006001905060005b6005811015610965577f320000000000000000000000000000000000000000000000000000000000000083828151811061091757610916610e2b565b5b602001015160f81c60f81b7effffffffffffffffffffffffffffffffffffffffffffffffffffffffffffff1916146109525760009150610965565b808061095d90610fb4565b9150506108da565b508015610a49576006600460003373ffffffffffffffffffffffffffffffffffffffff1673ffffffffffffffffffffffffffffffffffffffff168152602001908152602001600020866040516109bb9190610f02565b90815260200160405180910390208190555060003373ffffffffffffffffffffffffffffffffffffffff166108fc60069081150290604051600060405180830381858888f19350505050905080610a47576040517f08c379a0000000000000000000000000000000000000000000000000000000008152600401610a3e9061113a565b60405180910390fd5b505b6040518060400160405280600581526020017f32323232320000000000000000000000000000000000000000000000000000008152509550505050505092915050565b600360009054906101000a900473ffffffffffffffffffffffffffffffffffffffff1673ffffffffffffffffffffffffffffffffffffffff163373ffffffffffffffffffffffffffffffffffffffff1614610b1c576040517f08c379a0000000000000000000000000000000000000000000000000000000008152600401610b13906111a6565b60405180910390fd5b8060028190555050565b600080600090505b6005811015610bd957828181518110610b4a57610b49610e2b565b5b602001015160f81c60f81b7effffffffffffffffffffffffffffffffffffffffffffffffffffffffffffff1916848281518110610b8a57610b89610e2b565b5b602001015160f81c60f81b7effffffffffffffffffffffffffffffffffffffffffffffffffffffffffffff191614610bc6576000915050610bdf565b8080610bd190610fb4565b915050610b2e565b50600190505b92915050565b600080fd5b600080fd5b600080fd5b600080fd5b600080fd5b60008083601f840112610c1457610c13610bef565b5b8235905067ffffffffffffffff811115610c3157610c30610bf4565b5b602083019150836001820283011115610c4d57610c4c610bf9565b5b9250929050565b60008060208385031215610c6b57610c6a610be5565b5b600083013567ffffffffffffffff811115610c8957610c88610bea565b5b610c9585828601610bfe565b92509250509250929050565b600081519050919050565b600082825260208201905092915050565b60005b83811015610cdb578082015181840152602081019050610cc0565b83811115610cea576000848401525b50505050565b6000601f19601f8301169050919050565b6000610d0c82610ca1565b610d168185610cac565b9350610d26818560208601610cbd565b610d2f81610cf0565b840191505092915050565b60006020820190508181036000830152610d548184610d01565b905092915050565b6000819050919050565b610d6f81610d5c565b8114610d7a57600080fd5b50565b600081359050610d8c81610d66565b92915050565b600060208284031215610da857610da7610be5565b5b6000610db684828501610d7d565b91505092915050565b7f53656e642061746c65617374206f6e6520657468657220746f20706c61790000600082015250565b6000610df5601e83610cac565b9150610e0082610dbf565b602082019050919050565b60006020820190508181036000830152610e2481610de8565b9050919050565b7f4e487b7100000000000000000000000000000000000000000000000000000000600052603260045260246000fd5b7f4e487b7100000000000000000000000000000000000000000000000000000000600052602260045260246000fd5b60006002820490506001821680610ea157607f821691505b60208210811415610eb557610eb4610e5a565b5b50919050565b600081519050919050565b600081905092915050565b6000610edc82610ebb565b610ee68185610ec6565b9350610ef6818560208601610cbd565b80840191505092915050565b6000610f0e8284610ed1565b915081905092915050565b7f596f757220617474656d70747320617265206f76657200000000000000000000600082015250565b6000610f4f601683610cac565b9150610f5a82610f19565b602082019050919050565b60006020820190508181036000830152610f7e81610f42565b9050919050565b7f4e487b7100000000000000000000000000000000000000000000000000000000600052601160045260246000fd5b6000610fbf82610d5c565b91507fffffffffffffffffffffffffffffffffffffffffffffffffffffffffffffffff821415610ff257610ff1610f85565b5b600182019050919050565b7f4e6f7420612076616c696420776f726400000000000000000000000000000000600082015250565b6000611033601083610cac565b915061103e82610ffd565b602082019050919050565b6000602082019050818103600083015261106281611026565b9050919050565b7f4e487b7100000000000000000000000000000000000000000000000000000000600052604160045260246000fd5b60006110a382610d5c565b91506110ae83610d5c565b9250827fffffffffffffffffffffffffffffffffffffffffffffffffffffffffffffffff038211156110e3576110e2610f85565b5b828201905092915050565b7f4661696c656420746f2073656e64204574686572000000000000000000000000600082015250565b6000611124601483610cac565b915061112f826110ee565b602082019050919050565b6000602082019050818103600083015261115381611117565b9050919050565b7f596f752063616e6e6f742063616c6c2074686973207472616e73616374696f6e600082015250565b6000611190602083610cac565b915061119b8261115a565b602082019050919050565b600060208201905081810360008301526111bf81611183565b905091905056fea26469706673582212204981c255dde89c87cea8f25309b37d3c33219b4407decb06b8d5ef139000e6ce64736f6c634300080c0033",
  "immutableReferences": {},
  "source": "// SPDX-License-Identifier: MIT\r\npragma solidity >=0.4.22 <0.9.0;\r\n\r\ncontract WordleContract {\r\n    string[] wordlist = [\r\n        \"dummy\",\r\n        \"soare\",\r\n        \"mimic\",\r\n        \"stair\",\r\n        \"eight\",\r\n        \"pause\",\r\n        \"route\",\r\n        \"equal\",\r\n        \"bytes\",\r\n        \"learn\"\r\n    ];\r\n    string[] validList = [\r\n        \"dummy\",\r\n        \"soare\",\r\n        \"mimic\",\r\n        \"stair\",\r\n        \"eight\",\r\n        \"pause\",\r\n        \"route\",\r\n        \"equal\",\r\n        \"bytes\",\r\n        \"learn\"\r\n    ];\r\n    uint256 word_of_the_day;\r\n    address admin;\r\n    mapping(address => mapping(bytes => uint256)) attempts;\r\n\r\n    constructor(address _admin) public {\r\n        admin = _admin;\r\n    }\r\n\r\n    function updateWord(uint256 _random_number) external {\r\n        require(msg.sender == admin, \"You cannot call this transaction\");\r\n        word_of_the_day = _random_number;\r\n    }\r\n\r\n    function equal(bytes memory b1, bytes memory b2)\r\n        private\r\n        pure\r\n        returns (bool)\r\n    {\r\n        for (uint256 i = 0; i < 5; i++) {\r\n            if (b1[i] != b2[i]) return false;\r\n        }\r\n        return true;\r\n    }\r\n\r\n    function checkWord(string calldata input)\r\n        external\r\n        payable\r\n        returns (string memory)\r\n    {\r\n        require(msg.value >= 1, \"Send atleast one ether to play\");\r\n        bytes memory temp = bytes(wordlist[word_of_the_day]);\r\n        require(attempts[msg.sender][temp] < 6, \"Your attempts are over\");\r\n        bool valid = false;\r\n        bytes memory b1 = bytes(input);\r\n\r\n        for (uint256 i = 0; i < 6; i++) {\r\n            bytes memory b2 = bytes(validList[i]);\r\n            if (equal(b1, b2)) {\r\n                valid = true;\r\n                break;\r\n            }\r\n        }\r\n        require(valid, \"Not a valid word\");\r\n\r\n        bytes memory output = new bytes(5);\r\n\r\n        for (uint256 i = 0; i < 5; i++) {\r\n            if (b1[i] == temp[i]) output[i] = \"2\";\r\n            else if (\r\n                b1[i] == temp[0] ||\r\n                b1[i] == temp[1] ||\r\n                b1[i] == temp[2] ||\r\n                b1[i] == temp[3] ||\r\n                b1[i] == temp[4]\r\n            ) {\r\n                output[i] = \"1\";\r\n            } else output[i] = \"0\";\r\n        }\r\n        attempts[msg.sender][temp] += 1;\r\n        bool done = true;\r\n        for (uint256 i = 0; i < 5; i++) {\r\n            if (output[i] != \"2\") {\r\n                done = false;\r\n                break;\r\n            }\r\n        }\r\n        if (done) {\r\n            attempts[msg.sender][temp] = 6;\r\n            bool sent = payable(msg.sender).send(6);\r\n            require(sent, \"Failed to send Ether\");\r\n        }\r\n        return \"22222\";\r\n    }\r\n}\r\n",
  "sourcePath": "C:\\Users\\sauri\\Desktop\\Learning\\Blockchain\\wordle3\\backend\\contracts\\WordleContract.sol",
  "compiler": {
    "name": "solc",
    "version": "0.8.12+commit.f00d7308.Emscripten.clang"
  },
  "schemaVersion": "3.4.6",
  "updatedAt": "2022-03-19T10:53:00.118Z",
  "devdoc": {
    "kind": "dev",
    "methods": {},
    "version": 1
  },
  "userdoc": {
    "kind": "user",
    "methods": {},
    "version": 1
  }
}